{
  "_format": "hh-sol-artifact-1",
  "contractName": "ABXTOKEN",
  "sourceName": "contracts/ABXTOKEN.sol",
  "abi": [
    {
      "inputs": [],
      "stateMutability": "nonpayable",
      "type": "constructor"
    },
    {
      "inputs": [
        {
          "internalType": "address",
          "name": "spender",
          "type": "address"
        },
        {
          "internalType": "uint256",
          "name": "allowance",
          "type": "uint256"
        },
        {
          "internalType": "uint256",
          "name": "needed",
          "type": "uint256"
        }
      ],
      "name": "ERC20InsufficientAllowance",
      "type": "error"
    },
    {
      "inputs": [
        {
          "internalType": "address",
          "name": "sender",
          "type": "address"
        },
        {
          "internalType": "uint256",
          "name": "balance",
          "type": "uint256"
        },
        {
          "internalType": "uint256",
          "name": "needed",
          "type": "uint256"
        }
      ],
      "name": "ERC20InsufficientBalance",
      "type": "error"
    },
    {
      "inputs": [
        {
          "internalType": "address",
          "name": "approver",
          "type": "address"
        }
      ],
      "name": "ERC20InvalidApprover",
      "type": "error"
    },
    {
      "inputs": [
        {
          "internalType": "address",
          "name": "receiver",
          "type": "address"
        }
      ],
      "name": "ERC20InvalidReceiver",
      "type": "error"
    },
    {
      "inputs": [
        {
          "internalType": "address",
          "name": "sender",
          "type": "address"
        }
      ],
      "name": "ERC20InvalidSender",
      "type": "error"
    },
    {
      "inputs": [
        {
          "internalType": "address",
          "name": "spender",
          "type": "address"
        }
      ],
      "name": "ERC20InvalidSpender",
      "type": "error"
    },
    {
      "anonymous": false,
      "inputs": [
        {
          "indexed": true,
          "internalType": "address",
          "name": "owner",
          "type": "address"
        },
        {
          "indexed": true,
          "internalType": "address",
          "name": "spender",
          "type": "address"
        },
        {
          "indexed": false,
          "internalType": "uint256",
          "name": "value",
          "type": "uint256"
        }
      ],
      "name": "Approval",
      "type": "event"
    },
    {
      "anonymous": false,
      "inputs": [
        {
          "indexed": true,
          "internalType": "address",
          "name": "from",
          "type": "address"
        },
        {
          "indexed": true,
          "internalType": "address",
          "name": "to",
          "type": "address"
        },
        {
          "indexed": false,
          "internalType": "uint256",
          "name": "value",
          "type": "uint256"
        }
      ],
      "name": "Transfer",
      "type": "event"
    },
    {
      "inputs": [
        {
          "internalType": "address",
          "name": "owner",
          "type": "address"
        },
        {
          "internalType": "address",
          "name": "spender",
          "type": "address"
        }
      ],
      "name": "allowance",
      "outputs": [
        {
          "internalType": "uint256",
          "name": "",
          "type": "uint256"
        }
      ],
      "stateMutability": "view",
      "type": "function"
    },
    {
      "inputs": [
        {
          "internalType": "address",
          "name": "spender",
          "type": "address"
        },
        {
          "internalType": "uint256",
          "name": "value",
          "type": "uint256"
        }
      ],
      "name": "approve",
      "outputs": [
        {
          "internalType": "bool",
          "name": "",
          "type": "bool"
        }
      ],
      "stateMutability": "nonpayable",
      "type": "function"
    },
    {
      "inputs": [
        {
          "internalType": "address",
          "name": "account",
          "type": "address"
        }
      ],
      "name": "balanceOf",
      "outputs": [
        {
          "internalType": "uint256",
          "name": "",
          "type": "uint256"
        }
      ],
      "stateMutability": "view",
      "type": "function"
    },
    {
      "inputs": [
        {
          "internalType": "uint256",
          "name": "value",
          "type": "uint256"
        }
      ],
      "name": "burn",
      "outputs": [],
      "stateMutability": "nonpayable",
      "type": "function"
    },
    {
      "inputs": [
        {
          "internalType": "address",
          "name": "account",
          "type": "address"
        },
        {
          "internalType": "uint256",
          "name": "value",
          "type": "uint256"
        }
      ],
      "name": "burnFrom",
      "outputs": [],
      "stateMutability": "nonpayable",
      "type": "function"
    },
    {
      "inputs": [
        {
          "internalType": "uint256",
          "name": "_avxquantity",
          "type": "uint256"
        }
      ],
      "name": "buyABX",
      "outputs": [],
      "stateMutability": "payable",
      "type": "function"
    },
    {
      "inputs": [],
      "name": "decimals",
      "outputs": [
        {
          "internalType": "uint8",
          "name": "",
          "type": "uint8"
        }
      ],
      "stateMutability": "view",
      "type": "function"
    },
    {
      "inputs": [],
      "name": "isEligible",
      "outputs": [
        {
          "internalType": "bool",
          "name": "",
          "type": "bool"
        }
      ],
      "stateMutability": "view",
      "type": "function"
    },
    {
      "inputs": [],
      "name": "name",
      "outputs": [
        {
          "internalType": "string",
          "name": "",
          "type": "string"
        }
      ],
      "stateMutability": "view",
      "type": "function"
    },
    {
      "inputs": [],
      "name": "owner",
      "outputs": [
        {
          "internalType": "address",
          "name": "",
          "type": "address"
        }
      ],
      "stateMutability": "view",
      "type": "function"
    },
    {
      "inputs": [],
      "name": "symbol",
      "outputs": [
        {
          "internalType": "string",
          "name": "",
          "type": "string"
        }
      ],
      "stateMutability": "view",
      "type": "function"
    },
    {
      "inputs": [],
      "name": "totalSupply",
      "outputs": [
        {
          "internalType": "uint256",
          "name": "",
          "type": "uint256"
        }
      ],
      "stateMutability": "view",
      "type": "function"
    },
    {
      "inputs": [
        {
          "internalType": "address",
          "name": "to",
          "type": "address"
        },
        {
          "internalType": "uint256",
          "name": "value",
          "type": "uint256"
        }
      ],
      "name": "transfer",
      "outputs": [
        {
          "internalType": "bool",
          "name": "",
          "type": "bool"
        }
      ],
      "stateMutability": "nonpayable",
      "type": "function"
    },
    {
      "inputs": [
        {
          "internalType": "address",
          "name": "from",
          "type": "address"
        },
        {
          "internalType": "address",
          "name": "to",
          "type": "address"
        },
        {
          "internalType": "uint256",
          "name": "value",
          "type": "uint256"
        }
      ],
      "name": "transferFrom",
      "outputs": [
        {
          "internalType": "bool",
          "name": "",
          "type": "bool"
        }
      ],
      "stateMutability": "nonpayable",
      "type": "function"
    }
  ],
  "bytecode": "0x60a06040523480156200001157600080fd5b5060405180604001604052806008815260200167417274426c6f636b60c01b8152506040518060400160405280600381526020016208284b60eb1b815250816003908162000060919062000121565b5060046200006f828262000121565b50503360805250620001ed565b634e487b7160e01b600052604160045260246000fd5b600181811c90821680620000a757607f821691505b602082108103620000c857634e487b7160e01b600052602260045260246000fd5b50919050565b601f8211156200011c57600081815260208120601f850160051c81016020861015620000f75750805b601f850160051c820191505b81811015620001185782815560010162000103565b5050505b505050565b81516001600160401b038111156200013d576200013d6200007c565b62000155816200014e845462000092565b84620000ce565b602080601f8311600181146200018d5760008415620001745750858301515b600019600386901b1c1916600185901b17855562000118565b600085815260208120601f198616915b82811015620001be578886015182559484019460019091019084016200019d565b5085821015620001dd5787850151600019600388901b60f8161c191681555b5050505050600190811b01905550565b608051610b89620002176000396000818161024a0152818161042c015261051f0152610b896000f3fe6080604052600436106100dd5760003560e01c806343e1ca491161007f5780638da5cb5b116100595780638da5cb5b1461023857806395d89b4114610284578063a9059cbb14610299578063dd62ed3e146102b957600080fd5b806343e1ca49146101cd57806370a08231146101e257806379cc67901461021857600080fd5b806323b872dd116100bb57806323b872dd1461015c578063313ce5671461017c57806342966c6814610198578063435a96ae146101ba57600080fd5b806306fdde03146100e2578063095ea7b31461010d57806318160ddd1461013d575b600080fd5b3480156100ee57600080fd5b506100f76102ff565b604051610104919061099b565b60405180910390f35b34801561011957600080fd5b5061012d610128366004610a05565b610391565b6040519015158152602001610104565b34801561014957600080fd5b506002545b604051908152602001610104565b34801561016857600080fd5b5061012d610177366004610a2f565b6103ab565b34801561018857600080fd5b5060405160128152602001610104565b3480156101a457600080fd5b506101b86101b3366004610a6b565b6103cf565b005b6101b86101c8366004610a6b565b6103dc565b3480156101d957600080fd5b5061012d6105ed565b3480156101ee57600080fd5b5061014e6101fd366004610a84565b6001600160a01b031660009081526020819052604090205490565b34801561022457600080fd5b506101b8610233366004610a05565b610610565b34801561024457600080fd5b5061026c7f000000000000000000000000000000000000000000000000000000000000000081565b6040516001600160a01b039091168152602001610104565b34801561029057600080fd5b506100f7610629565b3480156102a557600080fd5b5061012d6102b4366004610a05565b610638565b3480156102c557600080fd5b5061014e6102d4366004610aa6565b6001600160a01b03918216600090815260016020908152604080832093909416825291909152205490565b60606003805461030e90610ad9565b80601f016020809104026020016040519081016040528092919081815260200182805461033a90610ad9565b80156103875780601f1061035c57610100808354040283529160200191610387565b820191906000526020600020905b81548152906001019060200180831161036a57829003601f168201915b5050505050905090565b60003361039f818585610646565b60019150505b92915050565b6000336103b9858285610653565b6103c48585856106d1565b506001949350505050565b6103d93382610730565b50565b336104225760405162461bcd60e51b8152602060048201526011602482015270155cd95c881a5cc81b9bdd081d985b1a59607a1b60448201526064015b60405180910390fd5b6001600160a01b037f00000000000000000000000000000000000000000000000000000000000000001633036104a55760405162461bcd60e51b815260206004820152602260248201527f4f776e65722063616e277420627579204142582066726f6d2068696d73656c66604482015261212160f01b6064820152608401610419565b60006104b68264e8d4a51000610b29565b905034811461051b5760405162461bcd60e51b815260206004820152602b60248201527f506c656173652073656c656374207468652073706563696669656420616d6f7560448201526a373a1037b31032ba3432b960a91b6064820152608401610419565b60007f00000000000000000000000000000000000000000000000000000000000000006001600160a01b03163460405160006040518083038185875af1925050503d8060008114610588576040519150601f19603f3d011682016040523d82523d6000602084013e61058d565b606091505b50509050806105de5760405162461bcd60e51b815260206004820152601e60248201527f546865207472616e73666572206973206e6f74207375636365737366756c00006044820152606401610419565b6105e83383610766565b505050565b32600090815260208190526040812054600a1161060a5750600190565b50600090565b61061b823383610653565b6106258282610730565b5050565b60606004805461030e90610ad9565b60003361039f8185856106d1565b6105e8838383600161079c565b6001600160a01b0383811660009081526001602090815260408083209386168352929052205460001981146106cb57818110156106bc57604051637dc7a0d960e11b81526001600160a01b03841660048201526024810182905260448101839052606401610419565b6106cb8484848403600061079c565b50505050565b6001600160a01b0383166106fb57604051634b637e8f60e11b815260006004820152602401610419565b6001600160a01b0382166107255760405163ec442f0560e01b815260006004820152602401610419565b6105e8838383610871565b6001600160a01b03821661075a57604051634b637e8f60e11b815260006004820152602401610419565b61062582600083610871565b6001600160a01b0382166107905760405163ec442f0560e01b815260006004820152602401610419565b61062560008383610871565b6001600160a01b0384166107c65760405163e602df0560e01b815260006004820152602401610419565b6001600160a01b0383166107f057604051634a1406b160e11b815260006004820152602401610419565b6001600160a01b03808516600090815260016020908152604080832093871683529290522082905580156106cb57826001600160a01b0316846001600160a01b03167f8c5be1e5ebec7d5bd14f71427d1e84f3dd0314c0f7b2291e5b200ac8c7c3b9258460405161086391815260200190565b60405180910390a350505050565b6001600160a01b03831661089c5780600260008282546108919190610b40565b9091555061090e9050565b6001600160a01b038316600090815260208190526040902054818110156108ef5760405163391434e360e21b81526001600160a01b03851660048201526024810182905260448101839052606401610419565b6001600160a01b03841660009081526020819052604090209082900390555b6001600160a01b03821661092a57600280548290039055610949565b6001600160a01b03821660009081526020819052604090208054820190555b816001600160a01b0316836001600160a01b03167fddf252ad1be2c89b69c2b068fc378daa952ba7f163c4a11628f55a4df523b3ef8360405161098e91815260200190565b60405180910390a3505050565b600060208083528351808285015260005b818110156109c8578581018301518582016040015282016109ac565b506000604082860101526040601f19601f8301168501019250505092915050565b80356001600160a01b0381168114610a0057600080fd5b919050565b60008060408385031215610a1857600080fd5b610a21836109e9565b946020939093013593505050565b600080600060608486031215610a4457600080fd5b610a4d846109e9565b9250610a5b602085016109e9565b9150604084013590509250925092565b600060208284031215610a7d57600080fd5b5035919050565b600060208284031215610a9657600080fd5b610a9f826109e9565b9392505050565b60008060408385031215610ab957600080fd5b610ac2836109e9565b9150610ad0602084016109e9565b90509250929050565b600181811c90821680610aed57607f821691505b602082108103610b0d57634e487b7160e01b600052602260045260246000fd5b50919050565b634e487b7160e01b600052601160045260246000fd5b80820281158282048414176103a5576103a5610b13565b808201808211156103a5576103a5610b1356fea26469706673582212208e06f11e4e742039ba9316d12596364ca75e827a27f887b500974a0aae9158a064736f6c63430008140033",
  "linkReferences": {},
  "deployedLinkReferences": {}
}