{
  "_format": "hh-sol-artifact-1",
  "contractName": "CommunityContract",
  "sourceName": "contracts/Community.sol",
  "abi": [
    {
      "inputs": [
        {
          "internalType": "address",
          "name": "_communityTokenContractAddress",
          "type": "address"
        },
        {
          "internalType": "address",
          "name": "_artBlockContractAddress",
          "type": "address"
        }
      ],
      "stateMutability": "nonpayable",
      "type": "constructor"
    },
    {
      "inputs": [
        {
          "internalType": "string",
          "name": "name",
          "type": "string"
        },
        {
          "internalType": "string",
          "name": "symbol",
          "type": "string"
        }
      ],
      "name": "addToCommunitiy",
      "outputs": [],
      "stateMutability": "nonpayable",
      "type": "function"
    },
    {
      "inputs": [
        {
          "internalType": "string",
          "name": "name",
          "type": "string"
        },
        {
          "internalType": "string",
          "name": "symbol",
          "type": "string"
        }
      ],
      "name": "balanceOfCommunityToken",
      "outputs": [
        {
          "internalType": "uint256",
          "name": "",
          "type": "uint256"
        }
      ],
      "stateMutability": "view",
      "type": "function"
    },
    {
      "inputs": [
        {
          "internalType": "uint256",
          "name": "",
          "type": "uint256"
        }
      ],
      "name": "communityList",
      "outputs": [
        {
          "internalType": "string",
          "name": "title",
          "type": "string"
        },
        {
          "internalType": "string",
          "name": "description",
          "type": "string"
        },
        {
          "internalType": "contract IERC20",
          "name": "nativeToken",
          "type": "address"
        },
        {
          "internalType": "address",
          "name": "creator",
          "type": "address"
        }
      ],
      "stateMutability": "view",
      "type": "function"
    },
    {
      "inputs": [
        {
          "internalType": "string",
          "name": "_title",
          "type": "string"
        },
        {
          "internalType": "string",
          "name": "_description",
          "type": "string"
        },
        {
          "internalType": "string",
          "name": "_name",
          "type": "string"
        },
        {
          "internalType": "string",
          "name": "_symbol",
          "type": "string"
        }
      ],
      "name": "createCommunity",
      "outputs": [],
      "stateMutability": "nonpayable",
      "type": "function"
    },
    {
      "inputs": [
        {
          "internalType": "string",
          "name": "_name",
          "type": "string"
        },
        {
          "internalType": "string",
          "name": "_symbol",
          "type": "string"
        },
        {
          "internalType": "uint256",
          "name": "_quantity",
          "type": "uint256"
        }
      ],
      "name": "exChangeWithABX",
      "outputs": [],
      "stateMutability": "nonpayable",
      "type": "function"
    },
    {
      "inputs": [],
      "name": "getAllCommunitiesOfUser",
      "outputs": [
        {
          "components": [
            {
              "internalType": "string",
              "name": "title",
              "type": "string"
            },
            {
              "internalType": "string",
              "name": "description",
              "type": "string"
            },
            {
              "internalType": "contract IERC20",
              "name": "nativeToken",
              "type": "address"
            },
            {
              "internalType": "address",
              "name": "creator",
              "type": "address"
            },
            {
              "internalType": "address[]",
              "name": "members",
              "type": "address[]"
            }
          ],
          "internalType": "struct CommunityContract.Community[]",
          "name": "",
          "type": "tuple[]"
        }
      ],
      "stateMutability": "view",
      "type": "function"
    },
    {
      "inputs": [
        {
          "internalType": "string",
          "name": "name",
          "type": "string"
        },
        {
          "internalType": "string",
          "name": "symbol",
          "type": "string"
        }
      ],
      "name": "getCommmunityCode",
      "outputs": [
        {
          "internalType": "bytes32",
          "name": "",
          "type": "bytes32"
        }
      ],
      "stateMutability": "pure",
      "type": "function"
    }
  ],
  "bytecode": "0x608060405234801561001057600080fd5b5060405161141738038061141783398101604081905261002f9161007c565b600180546001600160a01b039384166001600160a01b031991821617909155600280549290931691161790556100af565b80516001600160a01b038116811461007757600080fd5b919050565b6000806040838503121561008f57600080fd5b61009883610060565b91506100a660208401610060565b90509250929050565b611359806100be6000396000f3fe608060405234801561001057600080fd5b506004361061007d5760003560e01c8063a681b7ba1161005b578063a681b7ba146100d2578063b29c0afa146100f5578063e6041d8614610108578063f9ca9e281461011b57600080fd5b8063023014a8146100825780632f749989146100a857806350fca094146100bd575b600080fd5b610095610090366004610d4c565b61012e565b6040519081526020015b60405180910390f35b6100b0610202565b60405161009f9190610dfe565b6100d06100cb366004610eed565b61041b565b005b6100e56100e0366004610f61565b6105e0565b60405161009f9493929190610f7a565b610095610103366004610d4c565b61073d565b6100d0610116366004610d4c565b610776565b6100d0610129366004610fc4565b6107c7565b6000806004600061014188888888610bab565b6001600160a01b0390811682526020820192909252604001600090812060030154909116915060049061017688888888610bab565b6001600160a01b039081168252602082019290925260409081016000206002015490516370a0823160e01b815283831660048201529116906370a0823190602401602060405180830381865afa1580156101d4573d6000803e3d6000fd5b505050506040513d601f19601f820116820180604052508101906101f89190611088565b9695505050505050565b336000908152600360209081526040808320805482518185028101850190935280835260609492939192909184015b8282101561041257838290600052602060002090600502016040518060a0016040529081600082018054610264906110a1565b80601f0160208091040260200160405190810160405280929190818152602001828054610290906110a1565b80156102dd5780601f106102b2576101008083540402835291602001916102dd565b820191906000526020600020905b8154815290600101906020018083116102c057829003601f168201915b505050505081526020016001820180546102f6906110a1565b80601f0160208091040260200160405190810160405280929190818152602001828054610322906110a1565b801561036f5780601f106103445761010080835404028352916020019161036f565b820191906000526020600020905b81548152906001019060200180831161035257829003601f168201915b505050918352505060028201546001600160a01b03908116602080840191909152600384015490911660408084019190915260048401805482518185028101850190935280835260609094019391929091908301828280156103fa57602002820191906000526020600020905b81546001600160a01b031681526001909101906020018083116103dc575b50505050508152505081526020019060010190610231565b50505050905090565b6002546040516370a0823160e01b81523360048201526001600160a01b039091169060009082906370a0823190602401602060405180830381865afa158015610468573d6000803e3d6000fd5b505050506040513d601f19601f8201168201806040525081019061048c9190611088565b9050808311156104d75760405162461bcd60e51b81526020600482015260126024820152714e6f7420656e6f7567682042616c616e636560701b604482015260640160405180910390fd5b60405163079cc67960e41b8152336004820152602481018490526001600160a01b038316906379cc679090604401600060405180830381600087803b15801561051f57600080fd5b505af1158015610533573d6000803e3d6000fd5b505050506004600061054789898989610bab565b6001600160a01b039081168252602082019290925260409081016000206002015490516323b872dd60e01b8152306004820152336024820152604481018690529116906323b872dd906064016020604051808303816000875af11580156105b2573d6000803e3d6000fd5b505050506040513d601f19601f820116820180604052508101906105d691906110db565b5050505050505050565b600081815481106105f057600080fd5b9060005260206000209060050201600091509050806000018054610613906110a1565b80601f016020809104026020016040519081016040528092919081815260200182805461063f906110a1565b801561068c5780601f106106615761010080835404028352916020019161068c565b820191906000526020600020905b81548152906001019060200180831161066f57829003601f168201915b5050505050908060010180546106a1906110a1565b80601f01602080910402602001604051908101604052809291908181526020018280546106cd906110a1565b801561071a5780601f106106ef5761010080835404028352916020019161071a565b820191906000526020600020905b8154815290600101906020018083116106fd57829003601f168201915b50505050600283015460039093015491926001600160a01b039081169216905084565b6000848484846040516020016107569493929190611104565b604051602081830303815290604052805190602001209050949350505050565b6006600061078686868686610bab565b6001600160a01b03168152602080820192909252604001600090812080546001810182559082529190200180546001600160a01b0319163317905550505050565b61080b6040518060a00160405280606081526020016060815260200160006001600160a01b0316815260200160006001600160a01b03168152602001606081525090565b88888080601f016020809104026020016040519081016040528093929190818152602001838380828437600092019190915250505090825250604080516020601f890181900481028201810190925287815290889088908190840183828082843760009201919091525050505060208083019190915260408051601f87018390048302810183019091528581526108f291879087908190840183828082843760009201919091525050604080516020601f89018190048102820181019092528781529250879150869081908401838280828437600092019190915250339250610c25915050565b600061090086868686610bab565b6001600160a01b03811660408481019190915233606085015280516001808252818301909252919250600091906020808301908036833701905050905033816000815181106109515761095161113c565b6001600160a01b039092166020928302919091018201526080840182905233600090815260038252604081208054600181018255908252919020845185926005029091019081906109a290826111a1565b50602082015160018201906109b790826111a1565b5060408201516002820180546001600160a01b039283166001600160a01b031991821617909155606084015160038401805491909316911617905560808201518051610a0d916004840191602090910190610c89565b505060008054600181018255908052845185925060059091027f290decd9548b62a8d60345a988386fc84ba6bc95484008f6362f93160ef3e56301908190610a5590826111a1565b5060208201516001820190610a6a90826111a1565b5060408201516002820180546001600160a01b039283166001600160a01b031991821617909155606084015160038401805491909316911617905560808201518051610ac0916004840191602090910190610c89565b5050506001600160a01b038216600090815260046020526040902083518491908190610aec90826111a1565b5060208201516001820190610b0190826111a1565b5060408201516002820180546001600160a01b039283166001600160a01b031991821617909155606084015160038401805491909316911617905560808201518051610b57916004840191602090910190610c89565b509050508160056000610b6c8a8a8a8a61073d565b815260200190815260200160002060006101000a8154816001600160a01b0302191690836001600160a01b031602179055505050505050505050505050565b60015460405163c35b754760e01b81526000916001600160a01b031690819063c35b754790610be490899089908990899060040161128a565b602060405180830381865afa158015610c01573d6000803e3d6000fd5b505050506040513d601f19601f820116820180604052508101906101f891906112bc565b6001546040516322584a5f60e11b81526001600160a01b039091169081906344b094be90610c5b908790879087906004016112e5565b600060405180830381600087803b158015610c7557600080fd5b505af11580156105d6573d6000803e3d6000fd5b828054828255906000526020600020908101928215610cde579160200282015b82811115610cde57825182546001600160a01b0319166001600160a01b03909116178255602090920191600190910190610ca9565b50610cea929150610cee565b5090565b5b80821115610cea5760008155600101610cef565b60008083601f840112610d1557600080fd5b50813567ffffffffffffffff811115610d2d57600080fd5b602083019150836020828501011115610d4557600080fd5b9250929050565b60008060008060408587031215610d6257600080fd5b843567ffffffffffffffff80821115610d7a57600080fd5b610d8688838901610d03565b90965094506020870135915080821115610d9f57600080fd5b50610dac87828801610d03565b95989497509550505050565b6000815180845260005b81811015610dde57602081850181015186830182015201610dc2565b506000602082860101526020601f19601f83011685010191505092915050565b60006020808301818452808551808352604092508286019150828160051b8701018488016000805b84811015610ede57603f198a8503018652825160a08151818752610e4c82880182610db8565b915050898201518682038b880152610e648282610db8565b838b01516001600160a01b03908116898d01526060808601518216908a0152608094850151898303958a01959095528451808352948d0194879450918d019250905b80841015610ec857845182168352938c019360019390930192918c0191610ea6565b5050978a01979550505091870191600101610e26565b50919998505050505050505050565b600080600080600060608688031215610f0557600080fd5b853567ffffffffffffffff80821115610f1d57600080fd5b610f2989838a01610d03565b90975095506020880135915080821115610f4257600080fd5b50610f4f88828901610d03565b96999598509660400135949350505050565b600060208284031215610f7357600080fd5b5035919050565b608081526000610f8d6080830187610db8565b8281036020840152610f9f8187610db8565b6001600160a01b03958616604085015293909416606090920191909152509392505050565b6000806000806000806000806080898b031215610fe057600080fd5b883567ffffffffffffffff80821115610ff857600080fd5b6110048c838d01610d03565b909a50985060208b013591508082111561101d57600080fd5b6110298c838d01610d03565b909850965060408b013591508082111561104257600080fd5b61104e8c838d01610d03565b909650945060608b013591508082111561106757600080fd5b506110748b828c01610d03565b999c989b5096995094979396929594505050565b60006020828403121561109a57600080fd5b5051919050565b600181811c908216806110b557607f821691505b6020821081036110d557634e487b7160e01b600052602260045260246000fd5b50919050565b6000602082840312156110ed57600080fd5b815180151581146110fd57600080fd5b9392505050565b8385823760008482016000815283858237600093019283525090949350505050565b634e487b7160e01b600052604160045260246000fd5b634e487b7160e01b600052603260045260246000fd5b601f82111561119c57600081815260208120601f850160051c810160208610156111795750805b601f850160051c820191505b8181101561119857828155600101611185565b5050505b505050565b815167ffffffffffffffff8111156111bb576111bb611126565b6111cf816111c984546110a1565b84611152565b602080601f83116001811461120457600084156111ec5750858301515b600019600386901b1c1916600185901b178555611198565b600085815260208120601f198616915b8281101561123357888601518255948401946001909101908401611214565b50858210156112515787850151600019600388901b60f8161c191681555b5050505050600190811b01905550565b81835281816020850137506000828201602090810191909152601f909101601f19169091010190565b60408152600061129e604083018688611261565b82810360208401526112b1818587611261565b979650505050505050565b6000602082840312156112ce57600080fd5b81516001600160a01b03811681146110fd57600080fd5b6060815260006112f86060830186610db8565b828103602084015261130a8186610db8565b91505060018060a01b038316604083015294935050505056fea264697066735822122056ee70371d1842ada6c6c51dc75da6e91dbe4068c5c01cfe5b219c5e107857a764736f6c63430008140033",
  "linkReferences": {},
  "deployedLinkReferences": {}
}